:02000002B0004C
:1040000000400B007E550B00000006000C0005026E
:084010000401B41400000000DB
:044018007C520B00CB
:10401C00034613F8012B002AFBD1181A01387047FC
:10402C0009480A49884208B505D0094A824202D09B
:10403C00121A01F073F80748074A0021121A01F00E
:10404C007BF8014808BD00BFF0E50320D8540B00F5
:10405C0068E6032068E60320F0E7032070B5074EFE
:10406C00074C00F023FFA41BA4080025AC4200D190
:10407C0070BD56F8043B98470135F7E790540B0098
:10408C00B4540B0000F034B908B500F09DF8BDE84D
:10409C00084000F0C3BE00F02FBB00F02DBB00F0B9
:1040AC0033BB0078B0FA80F04009704701230370ED
:1040BC00704710B5002104468170808800F066FFBF
:1040CC00A08800F074FF01280AD1237843B9A279A3
:1040DC0020700AB1A070A371637883F00103637040
:1040EC00A08800F064FF10B901232070A37110BDEB
:1040FC0010B403685A6899681B68541001EB62008D
:10410C00D20748BF0A595DF8044B48BFD35818472B
:10411C0013B50A460346B0B10021816092E8030052
:10412C006C4684E8030093E8030082E8030094E8FB
:10413C00030083E803009868916890609960D168E7
:10414C00D868D060D96002B010BD012A38B50446D9
:10415C0002D10B68236003E0022A03D0032A0DD09E
:10416C00002038BD0C200D68FFF795FF0346002892
:10417C00F0D095E8070083E80700EBE7006800281B
:10418C00EED00C21FFF78BFFEAE710B583680446ED
:10419C0013B1032201469847204610BD38B5094D8E
:1041AC000024D5E900031B1AB4EB231F09D200EB42
:1041BC00041083680BB900F0A8FFC368984701345A
:1041CC00EFE738BDACE60320FFF7E8BF2DE9F74F6A
:1041DC00D0E9008B07466FF07843ABEB0800B3EBEC
:1041EC00201F8A4611464FEA201202D1244800F0C3
:1041FC0089FF012A144638BF0124A418AAEB08052C
:10420C001BD2E4B19C4228BF1C4620010191FFF750
:10421C0042FF019906467019FFF77AFF4546304672
:10422C00AA4500F110090CD02946FFF771FF28466A
:10423C00FFF7ABFF10354846F2E71C46E5E726468C
:10424C00E9E75D450AD029464846FFF761FF284655
:10425C00FFF79BFF103509F11009F2E7B8F1000FD9
:10426C0005D0B9684046A1EB0801FFF718FF06EB33
:10427C000414C7E90069BC6003B0BDE8F08F00BF4F
:10428C0090520B007FB5064600240C200D4602947C
:10429C00FFF701FF18B1124B8660C0E90034114BD7
:1042AC00114C0393114B00900293D4E901039842F3
:1042BC0010D06946FFF72CFF6368103363606846C3
:1042CC00FFF763FF00212846B58004B0BDE87040BD
:1042DC0000F05CBE01466A462046FFF777FFEEE72A
:1042EC00BF400B00FD400B00ACE6032057410B0018
:1042FC0038B50F4B0F4D0B200121588000F046FEB6
:10430C000D4B6B6000246B68185B2B6803EB44034C
:10431C0001215880023400F039FE0A2CF3D12146D9
:10432C000648FFF7AFFF06480921FFF7ABFF38BD82
:10433C00A0E6032068E60320F0E503207CE60320DA
:10434C0084E60320154B164A10B50024C3E900443B
:10435C009A60032000F044F92146012000F048F94E
:10436C00104B114A9C60C3E90044104B1C70C2E90D
:10437C0000341C711C721C731C740D4B1C700D4B87
:10438C0001221C809C709A710B4B1C809C700B4CF6
:10439C009A71208800F01EFE606010BD70E603204C
:1043AC000000FFFFACE6032068E603208CE6032048
:1043BC00A0E603207CE6032084E60320A4E6032089
:1043CC0008B5024B1B685B6C019308BD48020300E7
:1043DC0008B5024B1B685B68019308BD180203000B
:1043EC0008B5024B1B685B69019308BD18020300FA
:1043FC0008B5024B1B685B68019308BD2C020300D7
:10440C0008B5024B1B689B68019308BD2C02030086
:10441C0008B5024B1B68DB68019308BD2C02030036
:10442C0008B5024B1B685B69019308BD2C020300A5
:10443C0008B5024B1B681B6B019308BD2C020300D3
:10444C0008B5024B1B681B6A019308BD28020300C8
:10445C0008B5024B1B685B6A019308BD2802030078
:10446C0008B5024B1B689B6A019308BD2802030028
:10447C0008B5024B1B68DB6A019308BD28020300D8
:10448C0008B5024B1B681B6B019308BD2802030087
:10449C0008B5024B1B685B6B019308BD2802030037
:1044AC0008B5024B1B681B6C019308BD2802030066
:1044BC0008B5024B1B685B69019308BD64020300DD
:1044CC0008B5024B1B689B68019308BD680203008A
:1044DC0008B5024B1B68DB68019308BD680203003A
:1044EC0008B5024B1B68DB69019308BD3002030061
:1044FC0008B5024B1B681B6A019308BD3002030010
:10450C0008B5024B1B68DB68019308BD3C02030035
:10451C0008B5024B1B681B69019308BD3C020300E4
:10452C0008B5024B1B685B69019308BD3C02030094
:10453C0008B5024B1B689B69019308BD3C02030044
:10454C0008B5024B1B68DB69019308BD3C020300F4
:10455C0008B5024B1B681B6A019308BD3C020300A3
:10456C0008B5024B1B689B6A019308BD3C02030013
:10457C0008B5024B1B681B6C019308BD3C02030081
:10458C0008B5024B1B681B68019308BD4C02030065
:10459C0008B5024B1B681B69019308BD4C02030054
:1045AC0008B5024B1B685B69019308BD4C02030004
:1045BC0008B5024B1B689B69019308BD4C020300B4
:1045CC0008B5024B1B68DB69019308BD4C02030064
:1045DC0008B5024B1B681B6A019308BD4C02030013
:1045EC0008B5024B1B685B68019308BD20020300F1
:1045FC0008B5024B1B68DB6A019308BD200203005F
:10460C0008B5034B1B68D3F88830019308BD000034
:10461C002002030008B5034B1B68D3F894300193B8
:10462C0008BD00002002030008B5024B1B68DB6BC1
:10463C00019308BD4402030008B5024B1B685B687C
:10464C00019308BD4002030008B5024B1B689B6830
:10465C00019308BD4002030008B5024B1B68DB68E0
:10466C00019308BD4002030008B5024B1B681B698F
:10467C00019308BD4002030008B5024B1B685B693F
:10468C00019308BD4002030008B5024B1B689B69EF
:10469C00019308BD4002030008B5024B1B68DB699F
:1046AC00019308BD4002030008B5024B1B681B6A4E
:1046BC00019308BD4002030008B5024B1B681B6B3D
:1046CC00019308BD4002030008B5024B1B685B6BED
:1046DC00019308BD4002030008B5024B1B681B6C1C
:1046EC00019308BD4002030008B5024B1B685B6CCC
:1046FC00019308BD4002030008B5024B1B681B6800
:10470C00019308BD1C02030008B5024B1B685B68D3
:10471C00019308BD1C02030008B5024B1B68DB6A41
:10472C00019308BD1C02030008B5024B1B681B6CEF
:10473C00019308BD1C02030008B5024B1B685B6C9F
:10474C00019308BD1C020300024800230360FFF71D
:10475C0037BE00BFB8E60320002240681146FFF7C1
:10476C00A3BF002240681146FFF7AEBF406800228D
:10477C00FFF7A2BF4068002281F00101FFF78CBF58
:10478C00002340681A461946FFF77EBF0023406895
:10479C001A461946FFF770BF002240681146FFF712
:1047AC0063BF002240681146FFF74EBF40680022ED
:1047BC000221FFF751BF002340681A46FFF73CBFA8
:1047CC00024B03225A60024A1A607047BCE603206F
:1047DC00B4520B007047F8B5064615460C468F18B8
:1047EC00BC4206D0336814F8011B9B6830469847CE
:1047FC00F6E72846F8BD007C0022FFF721BE007CBE
:10480C000021FFF725BE007C0021FFF729BE007CAC
:10481C000021FFF72DBE007C0021FFF731BE10B543
:10482C0014210446FFF73BFC204610BD38B5044666
:10483C0015464FF47A730022C4E90123094B217405
:10484C00084623602946FFF72BFEBF3008D16B6961
:10485C00DB0705D56868FFF757FFE868FFF754FFDB
:10486C00204638BDF0520B00704710B51821044695
:10487C00FFF715FC204610BDF0B5037D062B8DB05F
:10488C000E4600F104074FF0000412D000F10805A9
:10489C0015F8011D0A22304600F043F9AF420444DA
:1048AC0019D0002CF4D02E21304600F037F90444F6
:1048BC00EEE72F236A4639460A208DF80040FFF7B1
:1048CC00F7FD6846FFF7A4FB33680246DB686946D0
:1048DC0030469847044620460DB0F0BD10B5054B48
:1048EC000446112240F8043B002100F025FC204630
:1048FC0010BD00BF18530B000346074A10B543F810
:10490C00042B01F1100251F8044B43F8044B914273
:10491C00F9D10A781A7010BD18530B0010B59DF818
:10492C00084044EA032343EA024242EA01610423B9
:10493C004160037510BD000007B5064B0360CB78D2
:10494C0000938B784A780978FFF7E8FF03B05DF89D
:10495C0004FB00BF18530B00014B024A1A6070474E
:10496C00C4E6032024530B00002340681A46FFF7CB
:10497C0063BE406800220221FFF76EBE0022406831
:10498C001146FFF761BE002240681146FFF76CBE6E
:10499C00002340681A461946FFF76EBE0023406894
:1049AC001A461946FFF770BE40680021FFF794BE07
:1049BC0040680021FFF798BE4068002281F0010199
:1049CC00FFF76ABE40680022FFF776BE00224068FF
:1049DC001146FFF779BE002240681146FFF764BE0E
:1049EC002DE9F04395B014460D460746FFF776FFC8
:1049FC0000211C220DA8009100F09EFB40230C937B
:104A0C0020466B460CAA0021FFF762FD04460028E5
:104A1C004BD1024601216868FFF726FE0221804631
:104A2C0022466868FFF720FE009E81462146002E34
:104A3C003BD0002939D17368022B03D00A2B11D03B
:104A4C00F669F4E7B8F1000FFAD0716906A80431E1
:104A5C0007ADFFF771FF0FCD3C1D0FC42B68237002
:104A6C004146EDE7B9F1000FEAD07469102201A8B4
:104A7C0000F062FB06238DF8143001AD04F108033D
:104A8C001834186859682A4603C20833A3421546DD
:104A9C00F7D101A906A807ADFFF72EFF0FCD3C1DDE
:104AAC000FC42B6823704946CAE70098FFF708FD2E
:104ABC00384615B0BDE8F083024B034A1A60002259
:104ACC005A607047C8E6032030530B00F8B5064611
:104ADC000D468F180024BD420CD0336815F8011B0D
:104AEC009B6830469847031E01DB1C44F3E7002CFF
:104AFC0008BF1C462046F8BD13B50446084659B1FC
:104B0C000191FFF785FA23680199DB68024620467C
:104B1C0002B0BDE81040184702B010BD03689B6896
:104B2C00184730B58BB00023012A8DF8243098BF7C
:104B3C000A2209AC0D46B1FBF2F101FB125303F052
:104B4C00FF03092B94BF30333733DBB2AA4204F88E
:104B5C00013DEFD92146FFF7CFFF0BB030BD000070
:104B6C00014B00229A607047D0E6032010B5044632
:104B7C0008462170FFF7B4FC00236360204610BD8B
:104B8C00054B02221A60054B054A9A600020C3E9C6
:104B9C000000FFF725BD00BFECE60320E0E6032094
:104BAC000000FFFF024B1A68024B1A60704700BFEF
:104BBC00FCE50320F0E6032070474174704708B50C
:104BCC00007CFFF7CDFC20EAE07008BD08B5007C46
:104BDC00FFF79EFC20EAE07008BD08B5007CFFF7EB
:104BEC00A7FC40EAE07008BD08B5007CFFF798FC14
:104BFC0040EAE07008BD007CFFF7A2BC37B5457CED
:104C0C0004462DB1207C03B0BDE83040FFF778BCE2
:104C1C00007C0191FFF7A4FC00280199F2DC2846E6
:104C2C0003B030BD10B514210446FFF738FA204606
:104C3C0010BD000010B54FF47A73044608461146B7
:104C4C000022C4E90123044B236001232074637404
:104C5C00FFF78EFC204610BD88530B004174704743
:104C6C007047704708B50021007CFFF7A1FC40EAB3
:104C7C00E07008BD08B50121007CFFF799FC40EA03
:104C8C00E07008BD08B5007CFFF78AFC20EAE070F4
:104C9C0008BD08B5007CFFF77BFC20EAE07008BD7E
:104CAC0013B50446007C0191FFF77AFC00280199AA
:104CBC0001DC607C20B1207CFFF782FC20EAE070F4
:104CCC0002B010BD007CFFF783BC10B51421044664
:104CDC00FFF7E5F9204610BD10B54FF47A73044682
:104CEC0008460021C4E90113044B236001232074FE
:104CFC0063741146FFF744FC204610BDB8530B00FB
:104D0C0010B514220446002100F016FA204610BDFE
:104D1C0010B50F4C88B003A8FFF7F2FF2178BFF352
:104D2C005B8F11F001010FD120460191FFF7B9F90A
:104D3C00019948B103AA0748FFF7CEFF2046FFF7B9
:104D4C00B5F9054800F0E4F9024808B010BD00BF01
:104D5C00F4E60320F8E603206D4C0B0000224068BB
:104D6C001146FFF781BC002240681146FFF79CBC3E
:104D7C00002240681146FFF7A7BC40680022FFF7ED
:104D8C009BBC4068002281F00101FFF785BC002329
:104D9C0040681A461946FFF777BC002340681A464C
:104DAC001946FFF769BC002240681146FFF74CBC5E
:104DBC00406800220221FFF74FBC002340681A46CE
:104DCC00FFF73ABC024B04225A60024A1A60704741
:104DDC000CE70320E8530B00014B1860704700BF31
:104DEC0000E6032008B50B4B43B1FFF791FF0368B6
:104DFC001B699847002801DDAFF30080064B43B1D7
:104E0C0000F05AF903681B699847002801DDAFF3DD
:104E1C00008008BD000000000000000008B5FFF78E
:104E2C00E1FFFFF7DDFA014B186008BD28E703200E
:104E3C000548064A064908B5121A00F06FF9054BE9
:104E4C00054A1A6008BD00BF00F4032004F40320D7
:104E5C0050550B0000F403201E1C279A07B50023A5
:104E6C0000931A466FF07701FFF7D4FB03B05DF89F
:104E7C0004FB000007B543880A2B08D0502B0BD13C
:104E8C00094B1B684BB103B05DF804EB1847FFF7F7
:104E9C00E5FF03B05DF804FB002300931A466FF0A6
:104EAC007701FFF7B7FBF4E718E7032010B51248BA
:104EBC000021FFF741FC114B1A68114B9A42114B20
:104ECC000CBF012200221A7001D0FFF7B1FFFFF7CF
:104EDC007FFA044600F038F90B4B13B12046AFF3C0
:104EEC00008000210848FFF79FFBBDE810400748F1
:104EFC000021FFF785BB00BFE54D0B0000F403203C
:104F0C001E1C279A14E7032000000000814E0B00A2
:104F1C00232813B502D9002002B010BDA0F10B0359
:104F2C00022B1AD8174C2178BFF35B8F11F00101BB
:104F3C000BD120460191FFF7B4F8019928B1124822
:104F4C00FFF714FE2046FFF7B1F80F4B1878FFF768
:104F5C00CFFA0028DFD10120DEE7012809D800F0C4
:104F6C006BF80021007CFFF793FA80F00100C0B2CF
:104F7C00D2E709380128EED800F09EF8007CFFF744
:104F8C00E7FAF2E71CE7032020E70320232838B5D3
:104F9C0004460D460AD8FF2908D0FFF7B9FF28B1FF
:104FAC0029462046BDE83840FFF72ABA38BD10B56F
:104FBC000446FFF72DFA031FDBB2012B08D920465C
:104FCC00FFF7A6FF20B12046BDE81040FFF728BA36
:104FDC00002010BD0D2810B504469CBF0E34A4B2A1
:104FEC002046FFF795FF50B103212046FFF700FA4A
:104FFC00032804D12046BDE81040FFF719BA002061
:10500C0010BD704738B50A4B036001230446436159
:10501C000849202000F074F8202560600549A5603F
:10502C00284600F06DF8C4E90305204638BD00BFE2
:10503C00180001001C540B0030B50E4D2978BFF33D
:10504C005B8F11F0010487B011D12846FFF729F8C6
:10505C0068B16846FFF7D6FF6A4621460648FFF757
:10506C00E5FB2846FFF722F8044800F051F8024807
:10507C0007B030BD2CE7032030E703200F500B00A6
:10508C007047000038B5044614252A46002100F06C
:10509C0053F825804025074925812846258200F0B4
:1050AC002FF804496060284600F02AF8E06020469A
:1050BC0038BD00BF1C540B0030B50E4D2978BFF322
:1050CC005B8F11F0010487B011D12846FEF7E9FF80
:1050DC0068B101A8FFF7D6FF01AA21460648FFF7E1
:1050EC00A9FD2846FEF7E2FF044800F011F802483B
:1050FC0007B030BD44E7032048E703208D500B0078
:10510C00FEF7CBBF08B5FFF707FB08B5FFF704FBAD
:10511C00002301461A46184600F044B80A4491424E
:10512C0000F1FF3300D1704710B511F8014B03F8B3
:10513C00014F9142F9D110BD02440346934200D174
:10514C00704703F8011BF9E738B5104B1D68AB6BC2
:10515C000446B3B91820FFF7CFFA0246A86320B96A
:10516C000B4B0C484221FFF7DFFA0B490B4BC0E904
:10517C0000130B4B83600B23838100210120C2E9B8
:10518C000401AB6B00221C615A6138BD00E60320A0
:10519C001D540B0034540B000E33CDAB34126DE6A2
:1051AC00ECDE05002DE9F843DFF8B8800646D8F8A8
:1051BC0000001F460D46914600F056F8254B1C6822
:1051CC0034B9254C1C60254B13B11B68C4F88830CE
:1051DC0063681F2B07DDD8F8000000F047F84FF08C
:1051EC00FF30BDE8F8834EB3D4F8880088B91C4B67
:1051FC0023B9D8F8000000F038F8F0E74FF48470C9
:10520C00FFF77AFA0028F4D00023C0E94033C4F841
:10521C008800636840F8239001229A4000EB8301D8
:10522C00D0F800311343C0F80031022EC1F8807061
:10523C0002BFD0F804311343C0F804316368D8F8C6
:10524C0000005A1C0233626044F8235000F00EF840
:10525C000020C6E7E8E703205CE70320000000001D
:10526C0005470B0064E60320704770477047000049
:10527C002D400B0069400B0091400B0095400B003A
:10528C0000000000766563746F723A3A5F4D5F728E
:10529C0065616C6C6F635F696E736572740000009E
:1052AC000000000000000000C3470B00B9470B00D2
:1052BC00AF470B00A5470B0099470B008D470B0020
:1052CC00B5490B00BD490B0081470B0079470B001A
:1052DC006F470B0065470B00ED490B000000000009
:1052EC0000000000E1470B002B480B0003480B00AB
:1052FC00E3470B000B480B0013480B001B480B003B
:10530C0023480B00000000000000000085480B0043
:10531C0075480B0077480B006170700000000000AE
:10532C000000000075490B007F490B0089490B00F8
:10533C0093490B009D490B00A9490B00B5490B0083
:10534C00BD490B00C5490B00D1490B00D9490B00D5
:10535C00E3490B00ED490B0025592D256D2D2564D6
:10536C005425483A254D3A2553257A0061736374C8
:10537C00696D65000000000000000000C54B0B00CB
:10538C00314C0B00094C0B00D94A0B00D94B0B00CC
:10539C00F54B0B00E74B0B00034C0B00C74B0B0002
:1053AC00CB4B0B0000000000000000006F4C0B000A
:1053BC00D74C0B00AD4C0B00D94A0B009F4C0B008B
:1053CC00714C0B00814C0B00D14C0B00914C0B0021
:1053DC00694C0B000000000000000000C74D0B00E2
:1053EC00BD4D0B00B34D0B00694D0B00A74D0B00D1
:1053FC009B4D0B00B5490B00BD490B008F4D0B00AD
:10540C00874D0B007D4D0B00734D0B00ED490B00D0
:10541C00005245454E54206D616C6C6F6320737562
:10542C0063636565646564002F746D702F6A656EC7
:10543C006B696E732D4743432D31302D7069706548
:10544C006C696E652D34385F323032303131323424
:10545C005F313630363138303633392F7372632F33
:10546C006E65776C69622F6E65776C69622F6C69FB
:10547C0062632F7374646C69622F72616E642E6345
:10548C000000000051430B0055470B00CD470B00AB
:10549C0065490B00C54A0B006D4B0B008D4B0B0087
:0854AC00B14B0B00D14D0B00C8
:1054B400040000001400000003000000474E5500E3
:1054C40032E5695EEBD6CDCEA852250D6FF8CEC578
:0454D400C93AB634E7
:1054D80000000100020003000400000078530B00E4
:1054E80004E60320000000000000000000000000A7
:1054F80000000000000000000000000000000000A4
:105508000000000000000000000000000000000093
:105518000000000000000000000000000000000083
:105528000000000000000000000000000000000073
:105538000000000000000000000000000000000063
:0855480000000000ECE7032065
:045550000000000057
:10555A0000000102030405060708090A0B0C0D0ED8
:10556A000F101112131415161718191A1B1C1D1EC9
:04557A001F202800C6
:04557E007856341215
:04000003B000401CED
:00000001FF
