:02000002B0004C
:1040000000400B00225D0B00000006000C000502C2
:084010000401B41400000000DB
:04401800205A0B001F
:10401C0081F0004102E000BF83F0004330B54FEA6D
:10402C0041044FEA430594EA050F08BF90EA020FDA
:10403C001FBF54EA000C55EA020C7FEA645C7FEA6D
:10404C00655C00F0E2804FEA5454D4EB5555B8BF90
:10405C006D420CDD2C4480EA020281EA030382EA01
:10406C00000083EA010180EA020281EA0303362D93
:10407C0088BF30BD11F0004F4FEA01314FF4801C66
:10408C004CEA113102D0404261EB410113F0004F78
:10409C004FEA03334CEA133302D0524263EB43032F
:1040AC0094EA050F00F0A780A4F10104D5F1200ECD
:1040BC000DDB02FA0EFC22FA05F2801841F1000128
:1040CC0003FA0EF2801843FA05F359410EE0A5F1FC
:1040DC0020050EF1200E012A03FA0EFC28BF4CF02D
:1040EC00020C43FA05F3C01851EBE37101F00045E3
:1040FC0007D54FF0000EDCF1000C7EEB00006EEBF0
:10410C000101B1F5801F1BD3B1F5001F0CD3490879
:10411C005FEA30004FEA3C0C04F101044FEA4452D0
:10412C0012F5800F80F09A80BCF1004F08BF5FEA57
:10413C00500C50F1000041EB045141EA050130BD37
:10414C005FEA4C0C404141EB0101013C28BFB1F549
:10415C00801FE9D291F0000F04BF01460020B1FA94
:10416C0081F308BF2033A3F10B03B3F120020CDA67
:10417C000C3208DD02F1140CC2F10C0201FA0CF045
:10418C0021FA02F10CE002F11402D8BFC2F1200CAA
:10419C0001FA02F120FA0CFCDCBF41EA0C01904060
:1041AC00E41AA2BF01EB0451294330BD6FEA0404A9
:1041BC001F3C1CDA0C340EDC04F11404C4F1200294
:1041CC0020FA04F001FA02F340EA030021FA04F3A6
:1041DC0045EA030130BDC4F10C04C4F1200220FAFD
:1041EC0002F001FA04F340EA0300294630BD21FA3B
:1041FC0004F0294630BD94F0000F83F4801306BF01
:10420C0081F480110134013D4EE77FEA645C18BFF4
:10421C007FEA655C29D094EA050F08BF90EA020F8B
:10422C0005D054EA000C04BF1946104630BD91EA83
:10423C00030F1EBF0021002030BD5FEA545C05D186
:10424C004000494128BF41F0004130BD14F58004C5
:10425C003CBF01F5801130BD01F0004545F0FE4139
:10426C0041F470014FF0000030BD7FEA645C1ABF6E
:10427C00194610467FEA655C1CBF0B46024650EAA5
:10428C00013406BF52EA033591EA030F41F40021D1
:10429C0030BD00BF90F0000F04BF0021704730B557
:1042AC004FF4806404F132044FF000054FF000012C
:1042BC0050E700BF90F0000F04BF0021704730B5ED
:1042CC004FF4806404F1320410F0004548BF4042C2
:1042DC004FF000013EE700BF42004FEAE2014FEA17
:1042EC0031014FEA02701FBF12F07F4393F07F4FF2
:1042FC0081F06051704732F07F4208BF704793F0F5
:10430C007F4F04BF41F40021704730B54FF4607407
:10431C0001F0004521F000411CE700BF50EA01020A
:10432C0008BF704730B54FF000050AE050EA0102B3
:10433C0008BF704730B511F0004502D5404261EB23
:10434C0041014FF4806404F132045FEA915C3FF464
:10435C00D8AE4FF003025FEADC0C18BF03325FEA01
:10436C00DC0C18BF033202EBDC02C2F1200300FAB2
:10437C0003FC20FA02F001FA03FE40EA0E0021FAD7
:10438C0002F11444BDE600BF4FEA410212F50012DF
:10439C0015D211D56FF47873B3EB625212D94FEA80
:1043AC00C12343F0004343EA505311F0004F23FA6A
:1043BC0002F018BF404270474FF00000704750EABF
:1043CC00013005D111F0004008BF6FF0004070477C
:1043DC004FF00000704700BF034613F8012B002A72
:1043EC00FBD1181A0138704709480A49884208B5A8
:1043FC0005D0094A824202D0121A01F061FA07482C
:10440C00074A0021121A01F069FA014808BD00BFE1
:10441C0058E503207C5C0B00D0E50320D0E503209D
:10442C00F0E7032070B5074E074C01F0F7F8A41B1A
:10443C00A4080025AC4200D170BD56F8043B984747
:10444C000135F7E7345C0B00585C0B0000F0C4BA84
:10445C0008B500F0ABF9BDE8084001F097B800F0E2
:10446C00F3BC00F0F1BC00F0F7BC0078B0FA80F0BF
:10447C00400970470123037070470178408801F0B0
:10448C004EB910B5002104468170808801F036F9D0
:10449C00A08801F05DF901280AD1237843B9A279EB
:1044AC0020700AB1A070A371637883F0010363706C
:1044BC00A08801F04DF910B901232070A37110BD33
:1044CC0010B50446008801F056F9606010BD10B4B8
:1044DC0003685A6899681B68541001EB6200D20794
:1044EC0048BF0A595DF8044B48BFD358184710B45D
:1044FC0003685A6899681B68541001EB6200D20774
:10450C0048BF0A595DF8044B48BFD358184710B43C
:10451C0003685A6899681B68541001EB6200D20753
:10452C0048BF0A595DF8044B48BFD358184713B518
:10453C000A460346B0B10021816092E803006C4644
:10454C0084E8030093E8030082E8030094E8030086
:10455C0083E803009868916890609960D168D86886
:10456C00D060D96002B010BD012A38B5044602D122
:10457C000B68236003E0022A03D0032A0DD000202D
:10458C0038BD0C200D68FFF76AFF03460028F0D0F9
:10459C0095E8070083E80700EBE700680028EED0F9
:1045AC000C21FFF760FFEAE7012A38B5044602D177
:1045BC000B68236003E0022A03D0032A0DD00020ED
:1045CC0038BD0C200D68FFF74AFF03460028F0D0D9
:1045DC0095E8070083E80700EBE700680028EED0B9
:1045EC000C21FFF740FFEAE7012A38B5044602D157
:1045FC000B68236003E0022A03D0032A0DD00020AD
:10460C0038BD0C200D68FFF72AFF03460028F0D0B8
:10461C0095E8070083E80700EBE700680028EED078
:10462C000C21FFF720FFEAE710B58368044613B1AD
:10463C00032201469847204610BD00231946026804
:10464C00D1540433142BFAD17047000038B5094DFE
:10465C000024D5E900031B1AB4EB231F09D200EB8D
:10466C00041083680BB901F022F9C3689847013430
:10467C00EFE738BDACE603202DE9F041234C244D87
:10468C00DFF8A480234F06462348FFF7D6FF00230C
:10469C0023602B60FFF7DAFF2368052B1BD1012366
:1046AC003B7098F8023013B91C4B9B785BB11A48DD
:1046BC00FFF7C3FF002323603B7098F8023013B15F
:1046CC002B6801332B602B68042BE3DD144B012288
:1046DC009A55BDE8F08198F802203AB90F4B9B78B7
:1046EC00002BF0D0236801332360ECE70A4A1268F0
:1046FC00012002F823002B682268192103EB8303A5
:10470C0001FB063307490B449854EBE784E603207E
:10471C0064E6032090E60320D0E503209CE603200A
:10472C0068E60320E4E50320A4E603202DE9F0412C
:10473C00134A144E144F002313703370134B192566
:10474C0005FB003505F119082C46444512D0FFF73E
:10475C007DFF3846FFF771FF621E0023396812F89F
:10476C00010FC8540433142BF8D1C82000F0A0FB5F
:10477C000534EAE73378002BE6D0BDE8F08100BFC2
:10478C0090E60320A4E60320D0E50320E4E5032013
:10479C00044B00211954044B192202FB003001F088
:1047AC009DB800BF68E60320E4E5032037B5FFF7AA
:1047BC004DFF05231F480093002340F6FF72194656
:1047CC0040681D4C1D4D00F067FBFFF773FDC4E9FD
:1047DC0000012846FFF731FFD4E90001FFF7D4FDB3
:1047EC002B68174D012203F82020D4E90001FFF7B4
:1047FC00CBFD144B144A1B5C1370144A13707BB121
:10480C00134B9B780BB1FFF7C3FFAB787BB1D4E9AB
:10481C000001FFF7B9FD03B0BDE83040FFF786BFDC
:10482C00AB7823B103B0BDE83040FFF725BF03B030
:10483C0030BD00BF94E6032088E60320D0E50320BA
:10484C00A4E6032068E603206DE6032090E603202F
:10485C009CE603202DE9F74FD0E9008B07466FF05B
:10486C007843ABEB0800B3EB201F8A4611464FEAA6
:10487C00201202D1244801F017F8012A144638BF3F
:10488C000124A418AAEB08051BD2E4B19C4228BF52
:10489C001C4620010191FFF7E2FD019906467019B3
:1048AC00FFF745FE45463046AA4500F110090CD0ED
:1048BC002946FFF73CFE2846FFF7B6FE1035484662
:1048CC00F2E71C46E5E72646E9E75D450AD02946AE
:1048DC004846FFF72CFE2846FFF7A6FE103509F1D7
:1048EC001009F2E7B8F1000F05D0B9684046A1EB0A
:1048FC000801FFF7B8FD06EB0414C7E90069BC60BA
:10490C0003B0BDE8F08F00BF345A0B0038B5D0E9C6
:10491C000135AB4204460A4606D01846FFF707FE9F
:10492C0063681033636038BD1946FFF793FFFAE7ED
:10493C007FB5054600260C200C460296FFF78FFD2E
:10494C0018B10C4B8560C0E900360B4B00906946E2
:10495C0003930A480A4B0293FFF7D8FF6846FFF708
:10496C0063FE00212046AC8004B0BDE8704000F02E
:10497C00C5BE00BF8F440B00FB440B00ACE603200C
:10498C00B5450B007FB5054600260C200C4602965B
:10499C00FFF765FD18B10C4B8560C0E900360B4B79
:1049AC000090694603930A480A4B0293FFF7AEFF47
:1049BC006846FFF739FE012120466C8004B0BDE843
:1049CC00704000F09BBE00BF87440B001B450B00E2
:1049DC00ACE60320F5450B0030B51C481C4D85B0EA
:1049EC000B21FFF7CFFF1B4B6B600024D5E90003B5
:1049FC00195B00EB44000234FFF7C4FF0A2CF5D11D
:104A0C0021461548154CFFF793FF15480921FFF770
:104A1C008FFF0F2000212080002500F06FFE0C205E
:104A2C000295FFF71CFD18B10E4B8460C0E90035F0
:104A3C000D4B0090039369460C4B0D480293FFF706
:104A4C0065FF6846FFF7F0FD05B030BD90E603202A
:104A5C00D0E5032058E50320A4E6032094E60320C8
:104A6C009CE60320CD440B00DB440B0075450B008A
:104A7C00ACE60320154B164A10B50024C3E90044DC
:104A8C009A60032000F04CF92146012000F058F9FF
:104A9C00104B114A9C60C3E90044104B1C70C2E9D6
:104AAC0000341C711C721C731C740D4B1C700D4B50
:104ABC0001221C809C709A710B4B1C809C700B4CBF
:104ACC009A71208800F057FE606010BDD8E5032075
:104ADC000000FFFFACE60320D0E503206EE60320C8
:104AEC0090E60320A4E603209CE6032094E6032032
:104AFC0008B5024B1B685B6C019308BD48020300B0
:104B0C0008B5024B1B685B68019308BD18020300D3
:104B1C0008B5024B1B685B69019308BD18020300C2
:104B2C0008B5024B1B685B68019308BD2C0203009F
:104B3C0008B5024B1B689B68019308BD2C0203004F
:104B4C0008B5024B1B68DB68019308BD2C020300FF
:104B5C0008B5024B1B681B69019308BD2C020300AE
:104B6C0008B5024B1B685B69019308BD2C0203005E
:104B7C0008B5024B1B681B6B019308BD2C0203008C
:104B8C0008B5024B1B681B6A019308BD2802030081
:104B9C0008B5024B1B685B6A019308BD2802030031
:104BAC0008B5024B1B689B6A019308BD28020300E1
:104BBC0008B5024B1B68DB6A019308BD2802030091
:104BCC0008B5024B1B681B6B019308BD2802030040
:104BDC0008B5024B1B685B6B019308BD28020300F0
:104BEC0008B5024B1B681B6C019308BD280203001F
:104BFC0008B5024B1B685B69019308BD6402030096
:104C0C0008B5024B1B689B68019308BD6802030042
:104C1C0008B5024B1B68DB68019308BD68020300F2
:104C2C0008B5024B1B68DB69019308BD3002030019
:104C3C0008B5024B1B681B6A019308BD30020300C8
:104C4C0008B5024B1B68DB68019308BD3C020300EE
:104C5C0008B5024B1B681B69019308BD3C0203009D
:104C6C0008B5024B1B685B69019308BD3C0203004D
:104C7C0008B5024B1B689B69019308BD3C020300FD
:104C8C0008B5024B1B68DB69019308BD3C020300AD
:104C9C0008B5024B1B681B6A019308BD3C0203005C
:104CAC0008B5024B1B689B6A019308BD3C020300CC
:104CBC0008B5024B1B681B6C019308BD3C0203003A
:104CCC0008B5024B1B681B68019308BD4C0203001E
:104CDC0008B5024B1B681B69019308BD4C0203000D
:104CEC0008B5024B1B685B69019308BD4C020300BD
:104CFC0008B5024B1B689B69019308BD4C0203006D
:104D0C0008B5024B1B68DB69019308BD4C0203001C
:104D1C0008B5024B1B681B6A019308BD4C020300CB
:104D2C0008B5024B1B685B68019308BD20020300A9
:104D3C0008B5024B1B685B69019308BD2002030098
:104D4C0008B5024B1B68DB6A019308BD2002030007
:104D5C0008B5034B1B68D3F88830019308BD0000DD
:104D6C002002030008B5034B1B68D3F89430019361
:104D7C0008BD00002002030008B5024B1B68DB6B6A
:104D8C00019308BD4402030008B5024B1B685B6825
:104D9C00019308BD4002030008B5024B1B689B68D9
:104DAC00019308BD4002030008B5024B1B68DB6889
:104DBC00019308BD4002030008B5024B1B681B6938
:104DCC00019308BD4002030008B5024B1B685B69E8
:104DDC00019308BD4002030008B5024B1B689B6998
:104DEC00019308BD4002030008B5024B1B68DB6948
:104DFC00019308BD4002030008B5024B1B681B6AF7
:104E0C00019308BD4002030008B5024B1B681B6BE5
:104E1C00019308BD4002030008B5024B1B685B6B95
:104E2C00019308BD4002030008B5024B1B681B6CC4
:104E3C00019308BD4002030008B5024B1B685B6C74
:104E4C00019308BD4002030008B5024B1B681B68A8
:104E5C00019308BD1C02030008B5024B1B685B687C
:104E6C00019308BD1C02030008B5024B1B68DB6AEA
:104E7C00019308BD1C02030008B5024B1B681B6C98
:104E8C00019308BD1C02030008B5024B1B685B6C48
:104E9C00019308BD1C0203008A4210B507D0441AC6
:104EAC000298C01A4443501A94FBF0F0184410BDF9
:104EBC000021FFF73DBF0000024800230360FFF70D
:104ECC0017BE00BFB8E60320002240681146FFF76A
:104EDC0093BF002240681146FFF79EBF4068002236
:104EEC00FFF792BF4068002281F00101FFF77CBF01
:104EFC00002340681A461946FFF76EBF002340682E
:104F0C001A461946FFF760BF002240681146FFF7AA
:104F1C0053BF002240681146FFF73EBF4068002295
:104F2C000221FFF741BF002340681A46FFF72CBF50
:104F3C00024B03225A60024A1A607047BCE60320F7
:104F4C00585A0B007047F8B5064615460C468F1894
:104F5C00BC4206D0336814F8011B9B683046984756
:104F6C00F6E72846F8BD007C0022FFF709BE007C5E
:104F7C000021FFF70DBE007C0021FFF711BE007C65
:104F8C000021FFF715BE007C0021FFF719BE10B5FC
:104F9C0014210446FFF767FA204610BD38B50446C5
:104FAC0015464FF47A730022C4E90123094B21748E
:104FBC00084623602946FFF713FEBF3008D16B6902
:104FCC00DB0705D56868FFF747FFE868FFF744FF84
:104FDC00204638BD945A0B00704710B51821044672
:104FEC00FFF741FA204610BDF0B5037D062B8DB0BE
:104FFC000E4600F104074FF0000412D000F1080532
:10500C0015F8011D0A22304600F043F9AF42044462
:10501C0019D0002CF4D02E21304600F037F904447E
:10502C00EEE72F236A4639460A208DF80040FFF739
:10503C00DFFD6846FFF7D0F933680246DB68694646
:10504C0030469847044620460DB0F0BD10B5054BD0
:10505C000446112240F8043B002100F03FFC20469E
:10506C0010BD00BFBC5A0B000346074A10B543F8ED
:10507C00042B01F1100251F8044B43F8044B9142FC
:10508C00F9D10A781A7010BDBC5A0B0010B59DF8F6
:10509C00084044EA032343EA024242EA0161042342
:1050AC004160037510BD000007B5064B0360CB785B
:1050BC0000938B784A780978FFF7E8FF03B05DF826
:1050CC0004FB00BFBC5A0B00014B024A1A6070472C
:1050DC00C4E60320C85A0B00002340681A46FFF7A9
:1050EC0053BE406800220221FFF75EBE00224068DA
:1050FC001146FFF751BE002240681146FFF75CBE17
:10510C00002340681A461946FFF75EBE002340682C
:10511C001A461946FFF760BE40680021FFF784BEAF
:10512C0040680021FFF788BE4068002281F0010131
:10513C00FFF75ABE40680022FFF766BE00224068A7
:10514C001146FFF769BE002240681146FFF754BEB6
:10515C002DE9F04395B014460D460746FFF776FF50
:10516C0000211C220DA8009100F0B8FB40230C93E9
:10517C0020466B460CAA0021FFF74AFD0446002886
:10518C004BD1024601216868FFF716FE02218046CA
:10519C0022466868FFF710FE009E81462146002ECD
:1051AC003BD0002939D17368022B03D00A2B11D0C4
:1051BC00F669F4E7B8F1000FFAD0716906A804316A
:1051CC0007ADFFF771FF0FCD3C1D0FC42B6823708B
:1051DC004146EDE7B9F1000FEAD07469102201A83D
:1051EC0000F07CFB06238DF8143001AD04F10803AC
:1051FC001834186859682A4603C20833A342154666
:10520C00F7D101A906A807ADFFF72EFF0FCD3C1D66
:10521C000FC42B6823704946CAE70098FFF7F0FCCF
:10522C00384615B0BDE8F083024B034A1A600022E1
:10523C005A607047C8E60320D45A0B00F8B50646EE
:10524C000D468F180024BD420CD0336815F8011B95
:10525C009B6830469847031E01DB1C44F3E7002C87
:10526C0008BF1C462046F8BD13B50446084659B184
:10527C000191FFF7B1F823680199DB6802462046DB
:10528C0002B0BDE81040184702B010BD03689B681F
:10529C00184730B58BB00023012A8DF8243098BF05
:1052AC000A2209AC0D46B1FBF2F101FB125303F0DB
:1052BC00FF03092B94BF30333733DBB2AA4204F817
:1052CC00013DEFD92146FFF7CFFF0BB030BD0000F9
:1052DC00014B00229A607047D0E6032010B50446BB
:1052EC0008462170FFF79CFC00236360204610BD2C
:1052FC00054B02221A60054B054A9A600020C3E94F
:10530C000000FFF70DBD00BFECE60320E0E6032034
:10531C000000FFFF024B1A68024B1A60704700BF77
:10532C0064E50320F0E6032070474174704708B52C
:10533C00007CFFF7B5FC20EAE07008BD08B5007CE6
:10534C00FFF786FC20EAE07008BD08B5007CFFF78B
:10535C008FFC40EAE07008BD08B5007CFFF780FCCC
:10536C0040EAE07008BD007CFFF78ABC37B5457C8D
:10537C0004462DB1207C03B0BDE83040FFF760BC83
:10538C00007C0191FFF78CFC00280199F2DC284687
:10539C0003B030BD10B514210446FFF764F8204665
:1053AC0010BD000010B54FF47A7304460846114640
:1053BC000022C4E90123044B23600123207463748D
:1053CC00FFF776FC204610BD2C5B0B004174704738
:1053DC007047704708B50021007CFFF789FC40EA54
:1053EC00E07008BD08B50121007CFFF781FC40EAA4
:1053FC00E07008BD08B5007CFFF772FC20EAE07095
:10540C0008BD08B5007CFFF763FC20EAE07008BD1E
:10541C0013B50446007C0191FFF762FC002801994A
:10542C0001DC607C20B1207CFFF76AFC20EAE07094
:10543C0002B010BD007CFFF76BBC10B51421044604
:10544C00FFF711F8204610BD10B54FF47A730446DF
:10545C0008460021C4E90113044B23600123207486
:10546C0063741146FFF72CFC204610BD5C5B0B00EF
:10547C0010B514220446002100F030FA204610BD6D
:10548C0010B50F4C88B003A8FFF7F2FF2178BFF3DB
:10549C005B8F11F001010FD120460191FEF7E5FF62
:1054AC00019948B103AA0748FFF7CEFF2046FEF743
:1054BC00E1FF054800F0FEF9024808B010BD00BF3E
:1054CC00F4E60320F8E60320DD530B0000224068CD
:1054DC001146FFF771BC002240681146FFF78CBCE7
:1054EC00002240681146FFF797BC40680022FFF786
:1054FC008BBC4068002281F00101FFF775BC0023D2
:10550C0040681A461946FFF767BC002340681A46E4
:10551C001946FFF759BC002240681146FFF73CBC06
:10552C00406800220221FFF73FBC002340681A4666
:10553C00FFF72ABC024B04225A60024A1A607047D9
:10554C000CE703208C5B0B00014B1860704700BF0D
:10555C0068E5032008B50B4B43B1FFF791FF0368D7
:10556C001B699847002801DDAFF30080064B43B15F
:10557C0000F074F903681B699847002801DDAFF34C
:10558C00008008BD000000000000000008B5FFF717
:10559C00E1FFFFF7BDFA014B186008BD28E70320B7
:1055AC000548064A064908B5121A00F089F9054B58
:1055BC00054A1A6008BD00BF00F4032004F4032060
:1055CC00F45C0B0000F403201E1C279A07B5002383
:1055DC0000931A466FF07701FFF7C4FB03B05DF838
:1055EC0004FB000007B543880A2B08D0502B0BD1C5
:1055FC00094B1B684BB103B05DF804EB1847FFF780
:10560C00E5FF03B05DF804FB002300931A466FF02E
:10561C007701FFF7A7FBF4E718E7032010B5124852
:10562C000021FFF731FC114B1A68114B9A42114BB8
:10563C000CBF012200221A7001D0FFF7B1FFFFF757
:10564C005FFA044600F052F90B4B13B12046AFF34E
:10565C00008000210848FFF78FFBBDE81040074889
:10566C000021FFF775BB00BF55550B0000F403205C
:10567C001E1C279A14E7032000000000F1550B00B4
:10568C00232813B502D9002002B010BDA0F10B03E2
:10569C00022B1AD8174C2178BFF35B8F11F0010144
:1056AC000BD120460191FEF7E0FE019928B112487A
:1056BC00FFF714FE2046FEF7DDFE0F4B1878FFF7C0
:1056CC00B7FA0028DFD10120DEE7012809D800F065
:1056DC0085F80021007CFFF77BFA80F00100C0B256
:1056EC00D2E709380128EED800F0B8F8007CFFF7B3
:1056FC00CFFAF2E71CE7032020E70320232838B574
:10570C0004460D460AD8FF2908D0FFF7B9FF28B187
:10571C0029462046BDE83840FFF70ABA38BD38B5EF
:10572C0004460D46FFF70CFAFF2810D0062804D8C3
:10573C004D2323FA00F0C30709D42046FFF7A0FF3E
:10574C0028B129462046BDE83840FFF701BA38BDDC
:10575C0010B50446FFF7F4F9031FDBB2012B08D98F
:10576C002046FFF78DFF20B12046BDE81040FFF723
:10577C00F7B9002010BD0D2810B504469CBF0E349F
:10578C00A4B22046FFF77CFF50B103212046FFF75F
:10579C00C7F9032804D12046BDE81040FFF7E8B94B
:1057AC00002010BD7047000038B50A4B0360012380
:1057BC00044643610849202000F074F820256060FD
:1057CC000549A560284600F06DF8C4E9030520469C
:1057DC0038BD00BF18000100C05B0B0030B50E4D8A
:1057EC002978BFF35B8F11F0010487B011D12846E3
:1057FC00FEF73BFE68B16846FFF7D6FF6A462146C6
:10580C000648FFF7CBFB2846FEF734FE044800F0B1
:10581C0051F8024807B030BD2CE7032030E70320D5
:10582C00B1570B007047000038B5044614252A46C2
:10583C00002100F053F82580402507492581284692
:10584C00258200F02FF804496060284600F02AF801
:10585C00E060204638BD00BFC05B0B0030B50E4D7C
:10586C002978BFF35B8F11F0010487B011D1284662
:10587C00FEF7FBFD68B101A8FFF7D6FF01AA214690
:10588C000648FFF78FFD2846FEF7F4FD044800F0AC
:10589C0011F8024807B030BD44E7032048E7032065
:1058AC0031580B00FEF7DDBD08B5FFF7DDFA08B582
:1058BC00FFF7DAFA002301461A46184600F044B8FE
:1058CC000A44914200F1FF3300D1704710B511F832
:1058DC00014B03F8014F9142F9D110BD024403462C
:1058EC00934200D1704703F8011BF9E738B5104B10
:1058FC001D68AB6B0446B3B91820FFF7A5FA024636
:10590C00A86320B90B4B0C484221FFF7B5FA0B49A1
:10591C000B4BC0E900130B4B83600B2383810021DD
:10592C000120C2E90401AB6B00221C615A6138BD35
:10593C0068E50320C15B0B00D85B0B000E33CDABCD
:10594C0034126DE6ECDE05002DE9F843DFF8B88083
:10595C000646D8F800001F460D46914600F056F852
:10596C00254B1C6834B9254C1C60254B13B11B68A6
:10597C00C4F8883063681F2B07DDD8F8000000F0EE
:10598C0047F84FF0FF30BDE8F8834EB3D4F88800E9
:10599C0088B91C4B23B9D8F8000000F038F8F0E7B0
:1059AC004FF48470FFF750FA0028F4D00023C0E9BC
:1059BC004033C4F88800636840F8239001229A4071
:1059CC0000EB8301D0F800311343C0F80031022EF4
:1059DC00C1F8807002BFD0F804311343C0F8043111
:1059EC006368D8F800005A1C0233626044F82350F4
:1059FC0000F00EF80020C6E7E8E703205CE7032080
:105A0C0000000000554E0B00CCE50320704770479A
:105A1C0070470000F5430B0031440B0059440B0058
:105A2C005D440B0000000000766563746F723A3AB7
:105A3C005F4D5F7265616C6C6F635F696E736572ED
:105A4C00740000000000000000000000334F0B0049
:105A5C00294F0B001F4F0B00154F0B00094F0B006C
:105A6C00FD4E0B0025510B002D510B00F14E0B0080
:105A7C00E94E0B00DF4E0B00D54E0B005D510B00B9
:105A8C000000000000000000514F0B009B4F0B006A
:105A9C00734F0B00534F0B007B4F0B00834F0B00CE
:105AAC008B4F0B00934F0B00000000000000000018
:105ABC00F54F0B00E54F0B00E74F0B0061707000CA
:105ACC000000000000000000E5500B00EF500B0040
:105ADC00F9500B0003510B000D510B0019510B0029
:105AEC0025510B002D510B0035510B0041510B0072
:105AFC0049510B0053510B005D510B0025592D25BD
:105B0C006D2D25645425483A254D3A2553257A00A8
:105B1C0061736374696D6500000000000000000093
:105B2C0035530B00A1530B0079530B0049520B005A
:105B3C0049530B0065530B0057530B0073530B0069
:105B4C0037530B003B530B0000000000000000001B
:105B5C00DF530B0047540B001D540B0049520B0034
:105B6C000F540B00E1530B00F1530B0041540B008D
:105B7C0001540B00D9530B00000000000000000082
:105B8C0037550B002D550B0023550B00D9540B002A
:105B9C0017550B000B550B0025510B002D510B000D
:105BAC00FF540B00F7540B00ED540B00E3540B00A7
:105BBC005D510B00005245454E54206D616C6C6F6D
:105BCC006320737563636565646564002F746D7021
:105BDC002F6A656E6B696E732D4743432D31302DE3
:105BEC00706970656C696E652D34385F3230323097
:105BFC00313132345F313630363138303633392F3B
:105C0C007372632F6E65776C69622F6E65776C6942
:105C1C00622F6C6962632F7374646C69622F72619A
:105C2C006E642E6300000000814A0B00C54E0B0011
:105C3C003D4F0B00D5500B0035520B00DD520B00C5
:0C5C4C00FD520B0021530B0041550B00D2
:105C5800040000001400000003000000474E550037
:105C6800635B7BB736739D1888B642B8F6C0CACF57
:045C7800DBD40AE689
:105C7C000000010002000300040000001C5B0B008C
:105C8C006CE5032000000000000000000000000094
:105C9C0000000000000000000000000000000000F8
:105CAC0000000000000000000000000000000000E8
:105CBC0000000000000000000000000000000000D8
:105CCC0000000000000000000000000000000000C8
:105CDC0000000000000000000000000000000000B8
:085CEC0000000000ECE70320BA
:045CF40000000000AC
:105CFE0000000102030405060708090A0B0C0D0E2D
:105D0E000F101112131415161718191A1B1C1D1E1D
:045D1E001F2028001A
:045D22007856341269
:04000003B000401CED
:00000001FF
